:100000000C9454030C94B1070C948A070C94C00907
:100010000C94C0090C94C0090C947C030C947C03D0
:100020000C947C030C947C030C947C030C947C0354
:100030000C947C030C947C030C947C030C947C0344
:100040000C9440070C947C030C9416060C94F00559
:100050000C947C030C947C030C947C030C947C0324
:100060000C947C030C947C033C15561572158D156D
:100070009F15DD15E415EE15F91503160316031685
:1000800003160316031603160316031603160316A8
:100090000316031603160316031603160316031698
:1000A00003160316031603163C1551155615721543
:1000B0008D159F15BA15C515D015084AD73B3BCEEF
:1000C000016E84BCBFFDC12F3D6C74319ABD568357
:1000D0003DDA3D00C77F11BED9E4BB4C3E916BAA0F
:1000E000AABE000000803F05A84CCDB2D44EB9385E
:1000F00036A9020C50B9918688083CA6AAAA2ABE45
:10010000000000803F0000407A10F35A00A0724EB9
:1001100018090010A5D4E80000E87648170000E4AC
:100120000B54020000CA9A3B000000E1F5050000F4
:1001300080969800000040420F000000A086010059
:100140000000102700000000E80300000000640029
:10015000000000000A000000000001000000000094
:100160002C76D888DC674F0823DFC1DFAE59E1B1B8
:10017000B796E5E3E453C63AE651997696E8E6C2C7
:100180008426EB898C9B62ED407C6FFCEFBC9C9FCE
:1001900040F2BAA56FA5F490055A2AF75C936B6CF0
:1001A000F9676DC11BFCE0E40D47FEF520E6B500E4
:1001B000D0ED902E0300943577050080841E080052
:1001C00000204E0A000000C80C333333330F986E02
:1001D00012831141EF8D2114893BE65516CFFEE6BF
:1001E000DB18D1844B381BF77C1D901DA4BBE42485
:1001F000203284725E228100C9F124ECA1E53D2702
:10020000AED580A83FD300408D142002A1C8DA12D9
:10021000817FD9F1DB40A4A6AF4A504E00726561E0
:100220006420257320302025640024504D544B3326
:1002300030312C322A32450D0A0024504D544B33B4
:1002400031332C312A32450D0A0024504D544B32A3
:1002500032302C313030302A31460024504D544B4E
:100260003331342C302C312C302C312C302C302CA0
:10027000302C302C302C302C302C302C302C302C9E
:10028000302C302C302C302C302A323800232530C2
:100290003464004D6F6465203D25640043504D007B
:1002A000416C61726D3D25640025250042617474C6
:1002B0006572793D2025303264004765696769655C
:1002C000204E616E6F20257300000005072060003E
:1002D0000000000000005F00000007000700147F1E
:1002E000147F14242A7F2A12231308646236495685
:1002F00020500008070300001C2241000041221C7E
:10030000002A1C7F1C2A08083E0808008070300064
:100310000808080808000060600020100804023E79
:100320005149453E00427F400072494949462141BA
:10033000494D331814127F1027454545393C4A4929
:100340004931412111090736494949364649492968
:100350001E00001400000040340000000814224178
:100360001414141414004122140802015909063E01
:10037000415D594E7C1211127C7F494949363E41FC
:100380004141227F4141413E7F494949417F09091D
:1003900009013E414151737F0808087F00417F41B8
:1003A000002040413F017F081422417F40404040EF
:1003B0007F021C027F7F0408107F3E4141413E7F47
:1003C000090909063E4151215E7F0919294626493E
:1003D00049493203017F01033F4040403F1F204015
:1003E000201F3F4038403F6314081463030478041F
:1003F000036159494D43007F4141410204081020E7
:10040000004141417F04020102044040404040005D
:100410000307080020545478407F28444438384467
:10042000444428384444287F385454541800087EE3
:10043000090218A4A49C787F0804047800447D4035
:10044000002040403D007F1028440000417F4000D4
:100450007C047804787C080404783844444438FCEC
:100460001824241818242418FC7C08040408485470
:1004700054542404043F44243C4040207C1C20402D
:10048000201C3C4030403C44281028444C90909024
:100490007C4464544C44000836410000007700005E
:1004A000004136080002010204023C2623263C00DB
:1004B0000219804000253034642530326425303202
:1004C000642E6C6F67002075532F68002075532FC2
:1004D0006800206D532F68002043504D006B43503F
:1004E0004D002530356C642E2530346C6400253089
:1004F000346C642E2530346C64004C4F4E3A2573B6
:100500002C2563004C41543A25732C25630025307B
:1005100032640024504D544B3130342A3337004E6E
:100520004F20534420434152442F204750532072C0
:100530006573657400253032642F253032642025C0
:100540003032643A253032643A25303264005772D2
:100550006F6E67206D6F64652021007553004473D2
:100560003D0075532F6820004D783D0042712F6D7E
:1005700032006B42712F6D32006D42712F6D32006F
:1005800043504D20006B43504D20002D2D006B6DCE
:10059000002042712F6D3200207553762F68005E67
:1005A000004E6F20475053002530326468253032AA
:1005B000646D002A2558002A302558002425732C04
:1005C000253034642C253032642D253032642D25BD
:1005D00030326454253032643A253032643A253062
:1005E00032645A2C256C642C256C642C256C642C8C
:1005F00025632C25732C25632C25732C25632C2532
:10060000732C25632C25642C256C64006E616E6F41
:100610000A23206465616474696D653D6F6E0A002C
:10062000312E342E360023204E4557204C4F470A9A
:100630002320666F726D61743D0000030C0F303330
:100640003C3FC0C3CCCFF0F3FCFF0000000024000F
:1006500027002A0000000000250028002B000000D1
:1006600000002300260029000404040404040404F8
:10067000020202020202030303030303010204084D
:1006800010204080010204081020010204081020FC
:100690000000000800020100000304070000000041
:1006A00000000000B822A22211241FBECFEFD8E024
:1006B000DEBFCDBF11E0A0E0B1E0E8E1FBE502C0A4
:1006C00005900D92A03FB107D9F725E0A0EFB1E06A
:1006D00001C01D92A431B207E1F713E0C3E5D3E0F6
:1006E00004C02197FE010E94F52CC235D107C9F73D
:1006F0000E944D0D0C947F2D0C940000CF92DF9240
:10070000EF92FF920F931F93CF93DF936C017A01C7
:100710008B01C0E0D0E0CE15DF0589F0D8016D91E6
:100720008D01D601ED91FC910190F081E02DC60183
:100730000995892B11F47E0102C02196ECCFC701E7
:10074000DF91CF911F910F91FF90EF90DF90CF90AD
:100750000895FC01538D448D252F30E0842F90E0C7
:10076000821B930B541710F0CF96089501970895AC
:10077000FC01918D828D981761F0828DDF01A80FA9
:10078000B11D5D968C91928D9F5F9F73928F90E0CB
:1007900008958FEF9FEF0895FC01918D828D98173A
:1007A00031F0828DE80FF11D858D90E008958FEF77
:1007B0009FEF0895FC01918D228D892F90E0805C40
:1007C0009F4F821B91098F739927089586E093E0CC
:1007D0000E94DA0321E0892B09F420E0822F08959A
:1007E000FC01848DDF01A80FB11DA35ABF4F2C91CE
:1007F000848D90E001968F739927848FA689B7899D
:100800002C93A089B1898C9180648C93938D848D75
:10081000981306C00288F389E02D80818F7D808344
:100820000895EF92FF920F931F93CF93DF93EC0104
:1008300081E0888F9B8D8C8D981305C0E889F9899C
:10084000808185FD24C0F62E0B8D10E00F5F1F4FB9
:100850000F731127E02E8C8DE8120CC00FB607FC29
:10086000FACFE889F989808185FFF5CFCE010E9412
:10087000F003F1CF8B8DFE01E80FF11DE35AFF4F1E
:10088000F0820B8FEA89FB898081806207C0EE8944
:10089000FF896083E889F98980818064808381E0B1
:1008A00090E0DF91CF911F910F91FF90EF9008950D
:1008B000CF93DF93EC01888D8823C9F0EA89FB8907
:1008C000808185FD05C0A889B9898C9186FD0FC0FE
:1008D0000FB607FCF5CF808185FFF2CFA889B989D3
:1008E0008C9185FFEDCFCE010E94F003E7CFDF9121
:1008F000CF91089580E090E0892B29F00E94E603D3
:1009000081110C94000008953FB7F8948091020380
:1009100090910303A0910403B091050326B5A89B11
:1009200005C02F3F19F00196A11DB11D3FBFBA2F81
:10093000A92F982F8827820F911DA11DB11DBC01E1
:10094000CD0143E0660F771F881F991F4A95D1F7A5
:10095000089508952091FB023091FC022817390771
:1009600071F49091FA028091F902981741F0E091A8
:10097000FA02F0E0E754FD4F808190E008958FEF98
:100980009FEF089508951F93CF93DF93DC015C964A
:100990002D913C915D972115310539F481E090E06E
:1009A00013969C938E9312973DC05196ED91FC91B6
:1009B000529750969C915097892F80951FB75E96BD
:1009C0004C915E9741FB772770F941FD6095F89453
:1009D0004081772311F0492B01C048234083E9016E
:1009E0002197F1F748E0508160FF02C0592B01C008
:1009F00058235083E9012197F1F76695415099F703
:100A0000772321F090818923808303C08081982BF4
:100A100090831FBF5C968D919C915D970197F1F734
:100A200021E030E0C901DF91CF911F91089520911D
:100A3000FB023091FC022817390771F48091F9020A
:100A40002091FA0290E0805C9F4F821B910960E444
:100A500070E00E94BF2C089580E090E008952091FE
:100A6000FB023091FC0228173907B9F49091FA0281
:100A70008091F902981789F0E091FA02F0E0E754CA
:100A8000FD4F80812091FA0230E02F5F3F4F2F739E
:100A900033272093FA0290E008958FEF9FEF089597
:100AA000E091FB02F091FC02E817F90769F4A389D1
:100AB000B4899C918589809589238C931092FC023E
:100AC0001092FB0281E0089580E00895FC01F89403
:100AD000A289B3899C91442319F08089892B02C093
:100AE000818989238C937894F894A685B7859C9105
:100AF000858589238C93789428E030E090E8F894F9
:100B0000A689B7894C91858984238C937894F8942D
:100B1000A28DB38D892F86234C91882319F0808D67
:100B2000842B02C0818D84238C937894F894A689B9
:100B3000B7894C918489842B8C9378949695215015
:100B40003109E9F6F894A685B7859C918485892BAF
:100B50008C9378940895089580E090E008958091B2
:100B6000F4019091F501A091F601B091F701019681
:100B7000A11DB11D8093F4019093F501A093F6019E
:100B8000B093F70108950E94312D6115710579F038
:100B9000FB0101900020E9F73197AF01461B570B8D
:100BA000DC01ED91FC910280F381E02D099480E05D
:100BB00090E008950F931F93CF93DF93EC010E9471
:100BC000C5058C016CEE71E0CE010E94C505800F59
:100BD000911FDF91CF911F910F9108950C94C5053E
:100BE0001F920F920FB60F9211242F933F934F93A2
:100BF0005F936F937F938F939F93AF93BF93EF9385
:100C0000FF9386E093E00E94F003FF91EF91BF9184
:100C1000AF919F918F917F916F915F914F913F9194
:100C20002F910F900FBE0F901F9018951F920F924B
:100C30000FB60F9211242F938F939F93EF93FF93EF
:100C4000E0911603F09117038081E0911C03F0916D
:100C50001D0382FD12C0908180911F038F5F8F73EF
:100C600020912003821751F0E0911F03F0E0EA5F2A
:100C7000FC4F958F80931F0301C08081FF91EF91FE
:100C80009F918F912F910F900FBE0F901F901895ED
:100C9000833081F028F4813099F08230A1F00895FA
:100CA0008730A9F08830B9F08430D1F48091800089
:100CB0008F7D03C0809180008F778093800008959E
:100CC00084B58F7702C084B58F7D84BD08958091EF
:100CD000B0008F7703C08091B0008F7D8093B0000B
:100CE00008951F93CF93DF93282F30E0F901E05749
:100CF000F94F8491F901E458F94FD491F901E85979
:100D0000F94FC491CC23C9F0162F81110E944806D7
:100D1000EC2FF0E0EE0FFF1FEC5AF94FA591B491C4
:100D20008FB7F894111105C09C91ED2FE095E92340
:100D300002C0EC91ED2BEC938FBFDF91CF911F910F
:100D40000895CF93DF9390E0FC01E458F94F24918C
:100D5000FC01E859F94F8491882361F190E0880FF4
:100D6000991FFC01E65BF94FC591D491FC01EC5A47
:100D7000F94FA591B491611109C09FB7F89488818A
:100D8000209582238883EC912E230BC0623061F47E
:100D90009FB7F8943881822F809583238883EC91C4
:100DA0002E2B2C939FBF06C08FB7F894E8812E2B73
:100DB00028838FBFDF91CF9108958E3008F08E5039
:100DC00087702091040190E4299F90011124822BC7
:100DD00080937C0080917A00806480937A00809177
:100DE0007A0086FDFCCF809178002091790090E018
:100DF000922B08958F929F92AF92BF92CF92DF92E3
:100E0000EF92FF926B017C010E9484044B015C0114
:100E1000C114D104E104F104F1F00E948404DC0166
:100E2000CB0188199909AA09BB09883E9340A105FD
:100E3000B10570F321E0C21AD108E108F10888EE8B
:100E4000880E83E0981EA11CB11CC114D104E104DA
:100E5000F10419F7DDCFFF90EF90DF90CF90BF90B6
:100E6000AF909F908F9008952FB7F8946091FE02F5
:100E70007091FF0280910003909101032FBF0895AC
:100E80001F920F920FB60F9211242F933F938F93BF
:100E90009F93AF93BF938091FE029091FF02A09128
:100EA0000003B09101033091FD0226E0230F2D379E
:100EB00020F40296A11DB11D05C029E8230F039659
:100EC000A11DB11D2093FD028093FE029093FF02AD
:100ED000A0930003B0930103809102039091030358
:100EE000A0910403B09105030196A11DB11D80934B
:100EF000020390930303A0930403B0930503BF91EF
:100F0000AF919F918F913F912F910F900FBE0F90B6
:100F10001F9018951F920F920FB60F9211242F93C6
:100F20003F934F935F936F937F938F939F93AF9371
:100F3000BF93EF93FF93E0910201F09103010995B4
:100F4000FF91EF91BF91AF919F918F917F916F91A1
:100F50005F914F913F912F910F900FBE0F901F9077
:100F600018951F920F920FB60F9211242F933F9353
:100F70004F935F936F937F938F939F93AF93BF93A1
:100F8000EF93FF93E0910001F09101010995FF912A
:100F9000EF91BF91AF919F918F917F916F915F91F1
:100FA0004F913F912F910F900FBE0F901F9018956A
:100FB000CF93DF93EC019C818E81981758F4E881E0
:100FC000F9810084F185E02D42E0CE0109958C8104
:100FD0008F5F8C83DF91CF910895DC01ED91FC91BF
:100FE0000084F185E02D40E00994EF92FF921F9379
:100FF000CF93DF931F92CDB7DEB77C01FC018681D2
:10100000681790F464838085162F180F612F6F7016
:10101000C70149830E94ED0712951F70612F60611F
:10102000C7010E94ED074981F70187818695869562
:101030008695481760F44583642F606BC7010F9055
:10104000DF91CF911F91FF90EF900C94ED070F90DF
:10105000DF91CF911F91FF90EF9008952F923F92D3
:101060004F925F926F927F928F929F92AF92BF92B8
:10107000CF92DF92EF92FF920F931F93CF93DF9364
:10108000CDB7DEB727970FB6F894DEBF0FBECDBF42
:10109000DC0114962C9114972B8315962C901597A0
:1010A0001A96AD90BC901B97A114B10409F4E7C047
:1010B0008C01F50144913196C4903196549031964B
:1010C0007491E72EF12CF7E0EF0EF11C93E0F5940C
:1010D000E7949A95E1F7EC82F5013496D490319635
:1010E000E4916D1550F0862F90E02E2F30E0D9015D
:1010F000AD0DB11D8A179B075CF06A3009F0BFC0C7
:10110000F8018185422D8E9D400D112460E0B1C013
:10111000F0E14F9FA00111244C29C50106966D19DD
:10112000F801F185F98342305105A0F4452B09F00F
:1011300019825E9C90015F9C300D1124629FA0017A
:10114000639F500D11249A01280F391F3F832E836E
:10115000412C27C0E72FE77021F048E0442E4E1ABB
:1011600001C0412CA82FFC0140E050E07E2F7A1BEB
:10117000761728F47491470F511D3196F7CFFC0173
:10118000E60FF11D54904E9DB0014F9D700D5E9D78
:10119000700D1124260F371FA901480F591F5F83B7
:1011A0004E83652C712CCC24C394D12C812C912C92
:1011B0002FEF2C0D2A833C81231708F058C0312CC7
:1011C000F8018185381608F04CC05A81511102C0CF
:1011D000332039F0F80145814F5F6B81C8010E94CF
:1011E000F507A12CB12CA51480F5F501E80DF91D2A
:1011F0002E813F81E20FF31F2491442061F0CE1431
:10120000DF0449F4E22FF0E0042C02C0F595E795E5
:101210000A94E2F72E2FF8018185823071F4E22FD3
:101220003110E295EF70F0E0E65CF94F2491622F07
:10123000C8012D830E94D8072D81622FC8010E940A
:10124000D807FFEFAF1ABF0ACECFB12C2981B21653
:1012500031F060E0C8010E94D807B394F7CF33940F
:10126000AFCF860C971CFFEFCF1ADF0AA1CF422D1C
:101270006FEFC8010E94F50781E090E002C080E0B6
:1012800090E027960FB6F894DEBF0FBECDBFDF917A
:10129000CF911F910F91FF90EF90DF90CF90BF9073
:1012A000AF909F908F907F906F905F904F903F9006
:1012B0002F9008950F931F93CF93DF93EC01162F78
:1012C000042F1B821A8288EE93E0A0E0B0E08C83AA
:1012D0009D83AE83BF838CE091E0998388831F8ACE
:1012E0001E8A198E188E1B8E1A8E1D8E1C8E6E8D68
:1012F0006E7F20FB61F96E8F6695617081E06827D3
:10130000842F0E94710661E0802F0E94A106402F69
:1013100050E0FA01E458F94FE491E88BFA01E859FA
:10132000F94FE491F0E0EE0FFF1FEC5AF94F859171
:1013300094919A8B898B60E0812F0E94A1068E8DFB
:1013400081FD04C061E0812F0E9471061C87612F1E
:1013500070E0FB01E458F94FE491ED87FB01E85997
:10136000F94FE491F0E0EE0FFF1FE25AF94F85913B
:1013700094919F878E87DF91CF911F910F91089550
:101380001F920F920FB60F9211242F933F934F93FA
:101390005F936F937F938F939F93AF93BF93EF93DD
:1013A000FF93E091FB02F091FC02309709F451C0E9
:1013B000968DA685B785858591FF04C09C9189236C
:1013C00029F447C09C91892309F043C0A389B489BB
:1013D0009C918589809589238C938689978901972B
:1013E000F1F7608D718DA685B785558538E020E0D1
:1013F000CB010197F1F7822F90E095958795282FE3
:101400004C91452309F02068315091F7868D81FD7C
:1014100020958091F90290E001968F739927309181
:10142000FA02381749F0A091F902B0E0A754BD4F75
:101430002C938093F90203C0868D8160868F828D04
:10144000938D0197F1F7A389B4899C918589892BA4
:101450008C93FF91EF91BF91AF919F918F917F916D
:101460006F915F914F913F912F910F900FBE0F9011
:101470001F901895CF93DF93EC018A8D9B8D892B5C
:10148000F1F08091FB029091FC028C179D07B9F05E
:10149000009711F00E9450058E8D8E7F8E8F1092D6
:1014A000F9021092FA02D093FC02C093FB02EB897E
:1014B000FC8990818D89892B808381E001C080E047
:1014C000DF91CF9108951F93CF93DF93182FC0E042
:1014D000D0E0219689ED94E00E941705892B51F404
:1014E0006AE070E080E090E00E94FA06C83CD10516
:1014F00081F712C089ED94E00E942F05111103C0FD
:101500002CE330E002C02EE330E08217930741F76E
:1015100081E0C83CD10509F480E0DF91CF911F91B3
:101520000895DC01862F262F30E0F901E859F94FA4
:10153000E491F0E0EE0FFF1FEC5AF94F4591549102
:1015400013965C934E931297F901E458F94FE49186
:10155000EC93E0951196EC9361E00C94A106CF9288
:10156000DF92EF92FF920F931F930E943407009136
:10157000F8011091F9012091FA013091FB01C0901E
:10158000F001D090F101E090F201F090F3016017CA
:1015900071078207930738F0AB01BC01401B510B68
:1015A000620B730B0AC00095109520953095AB0126
:1015B000BC01400F511F621F731F81E090E04C156A
:1015C0005D056E057F0508F480E01F910F91FF9087
:1015D000EF90DF90CF9008950F931F93CF93DF93F9
:1015E0008C01C0E0D0E0F80161918F01CE018C50F8
:1015F0009E4F0E94CC282196CD32D105A1F78DE2D5
:1016000090E0DF91CF911F910F9108950F931F9359
:10161000CF93DF938C01C0E0D0E0F80161918F019E
:10162000CE0188539F4F0E94CC282196C830D10507
:10163000A1F788E090E0DF91CF911F910F9108957D
:101640000F931F93CF93DF93EC0160E070E0CB0129
:10165000E99120ED2E0F2A30C0F4AAE0B0E09B0102
:10166000AC010E94FB2C0E2FEE0F110B220B330B43
:10167000DC01CB01800F911FA21FB31FBC01CD0164
:101680006053710981099109E3CFDF91CF911F91D7
:101690000F9108950F931F93CF93C1E08091BB04E6
:1016A0008D3221F0C0E00BEB14E002C00CEB14E033
:1016B000C8010E94200B9B01AC01A4E6B0E00E948F
:1016C000FB2CF801DF01219130ED320F3A30D0F3DD
:1016D0002E3269F511962C91119730ED320F3A3078
:1016E00030F5022E000C330B205331094AE0429FA3
:1016F0008001439F100D1124012E000C220B330B8F
:10170000600F711F821F931F12960C9120ED200F06
:101710002A3068F4002E000C110B00531109012E21
:10172000000C220B330B600F711F821F931FCC2301
:1017300039F090958095709561957F4F8F4F9F4FB1
:10174000CF911F910F9108954F925F926F927F9268
:101750008F929F92AF92BF92CF92DF92EF92FF92C1
:10176000CF93DF938BEB94E00E94200B2B013C0185
:1017700024E630E040E050E00E94D32C9B01AC0115
:1017800060EA76E881E090E00E94AF2C6B017C017A
:10179000EBEBF4E0819190ED980F9A30D8F38E3214
:1017A00019F5EF0180E1882E87E2982EA12CB12C4B
:1017B000A99180ED8A0F8A30B8F40A2E000CBB0B79
:1017C000D097A50194010E94062DC60ED71EE81ED3
:1017D000F91EC501B4012AE030E040E050E00E946B
:1017E000D32C49015A01E4CFC701B6016B5F7F4F8B
:1017F0008F4F9F4F26E030E040E050E00E94D32C16
:1018000069017A01C301B20124E630E040E050E012
:101810000E94D32C60E472E48FE090E00E94AF2C31
:101820006C0D7D1D8E1D9F1DDF91CF91FF90EF9060
:10183000DF90CF90BF90AF909F908F907F906F90F0
:101840005F904F9008954F925F926F927F928F9228
:101850009F92AF92BF92CF92DF92EF92FF92CF937F
:10186000DF938BEB94E00E94200B2B013C01EBEB10
:10187000F4E0819190ED980F9A30D8F38E3231F5E3
:10188000EF0180E1882E87E2982EA12CB12CC12C8B
:10189000D12C7601A99180ED8A0F8A30D0F40A2EDE
:1018A000000CBB0BD097A50194010E94062DC60E1B
:1018B000D71EE81EF91EC501B4012AE030E040E061
:1018C00050E00E94D32C49015A01E4CFC12CD12C05
:1018D0007601A301920160EA76E881E090E00E943F
:1018E000AF2C6C0D7D1D8E1D9F1DDF91CF91FF9044
:1018F000EF90DF90CF90BF90AF909F908F907F90B0
:101900006F905F904F9008958EE00E94DD06BC01BD
:10191000990F880B990B0E94A42A20E030E040E840
:101920005AE30E94C72B20E030E040E251E40E94DD
:10193000C72B24EB35EC4AEC5DE30E94FA290895AD
:10194000CF93DF93E3E9F6E08491EFE7F6E0D491FB
:10195000EBE6F6E0C491CC2391F081110E94480699
:10196000EC2FF0E0EE0FFF1FE25AF94FA591B49172
:10197000EC91ED2381E090E021F480E002C080E072
:1019800090E0DF91CF9108950F931F93CF93DF9352
:10199000C091FF04C695C695C695C1501091FE042E
:1019A0001150D0E04D2F60E088EF94E00E94F507E1
:1019B00000E060E088EF94E00E94D8070F5F101706
:1019C000C0F7DF5FCD1770F740E060E088EF94E08C
:1019D000DF91CF911F910F910C94F507FC01138EAD
:1019E000128E118E108E178A168A8DEC90E0958FCC
:1019F000848F8485863108F04DC025E530E0378B33
:101A0000268B2BEC30E0318F208F20E930E0338FB4
:101A1000228F90916800883050F021E08E3008F4D9
:101A200020E081E001C0880F2A95EAF701C084E038
:101A3000892B809368008485883038F08E3040F0A0
:101A4000863148F020E030E008C02DE630E005C0E7
:101A50002BE630E002C02CE630E0348B238B88305C
:101A600030F491E001C0990F8A95EAF70EC0282F53
:101A700030E08E3018F42850310902C02E50310960
:101A800091E001C0990F2A95EAF7958B848D958D89
:101A90000197F1F7CF010C943A0ACF93DF93CDB7BA
:101AA000DEB7E9970FB6F894DEBF0FBECDBF7894CE
:101AB00084B5826084BD84B5816084BD85B5826053
:101AC00085BD85B5816085BD80916E008160809304
:101AD0006E0010928100809181008260809381006D
:101AE000809181008160809381008091800081607D
:101AF000809380008091B10084608093B1008091D8
:101B0000B00081608093B00080917A0084608093FF
:101B10007A0080917A00826080937A0080917A00C6
:101B20008E7F80937A0080917A00806880937A001B
:101B30001092C10061E082E10E94A10660E085E1AF
:101B40000E94A106E0911603F091170382E08083C2
:101B5000E0911203F09113031082E0911403F091CD
:101B6000150387E6808310921E03E0911A03F0911B
:101B70001B0386E08083E0911803F09119038081B4
:101B800080618083E0911803F0911903808188605F
:101B90008083E0911803F09119038081806880832D
:101BA000E0911803F091190380818F7D8083E0918B
:101BB0003E04F0913F048DE2DF011D928A95E9F722
:101BC00000913E0410913F04E12CF12CC7018C5090
:101BD0009E4F0E94C428F80181938F01FFEFEF1AF6
:101BE000FF0A2DE2E216F10489F7E0913E04F0913C
:101BF0003F0480819181A281B3818D30904FAE4F9F
:101C0000BA4509F450C08DE2DF011D928A95E9F7CB
:101C1000E0913E04F0913F048DE090EFAEEFBAE525
:101C200080839183A283B38387ED97E0978B868B24
:101C300089E083A389E192E09F938F93B496FF9309
:101C4000EF930E94BD23E0913E04F0913F048CE3AA
:101C5000808F80E090E0A7EAB3E4818F928FA38F1A
:101C6000B48F80E090E0A4E1B2E4858F968FA78FD7
:101C7000B0A384E690E093A782A7CF010E94EC0A6C
:101C8000E0914004F091410488E0DF011D928A95C3
:101C9000E9F780914004909141040E94060B0F9057
:101CA0000F900F900F9089ED94E00E94EE0C61E090
:101CB00084E00E94A10689ED94E00E943A0A60E067
:101CC00084E00E94710664E670E080E090E00E948B
:101CD000FA0661E084E00E94710681E00E94630AD6
:101CE000811104C081E08093760203C081E080937B
:101CF000200280912002882309F48AC280913C044A
:101D000090913D040E943A0A809145048F938091FE
:101D100044048F9380E691E09F938F938DE192E04E
:101D20009F938F93809143048F93809142048F936C
:101D30000E94BD23609142047091430480913C0451
:101D400090913D040E94EE0580913C0490913D04E9
:101D5000DC01ED91FC910190F081E02D6DE00995A1
:101D60000FB6F894DEBF0FBECDBF80913C049091BA
:101D70003D04DC01ED91FC910084F185E02D099595
:101D8000892B99F380913C0490913D04DC01ED9105
:101D9000FC910284F385E02D09958D3011F08A3095
:101DA00021F7409144045091450460E070E0809137
:101DB0004204909143040E94362D00E010E0E12C93
:101DC00080913C0490913D04DC01ED91FC910084F4
:101DD000F185E02D0995892BD1F011E01E0D809140
:101DE000420490914304FC01EE0DF11D7F018091AE
:101DF0003C0490913D04DC01ED91FC910284F3855B
:101E0000E02D0995F7018083E12E00E010E061E00C
:101E100070E080E090E00E94FA068E2D90E0209124
:101E20004404309145048217930729F480E0F12C93
:101E3000F8E0CF2E23C00F5F1F4F083EF3E01F07CF
:101E40000CF4BECFF3CF2D3089F02D2DAD2DB0E0A9
:101E5000A617B70759F0922F981BDD24D394D20E02
:101E6000DA01A20FB11D2C912A3069F7DF01A90F09
:101E7000B11D1C928081811111C08D2D8E1508F02D
:101E8000BFC14091420450914304FA01E80FF11D93
:101E90006091440470914504282FDDCF833269F3AB
:101EA000933058F35E2F9F01822F851B8901D80143
:101EB0004C912F5F3F4F403229F4822F851B8913AD
:101EC000F3CFDBCF4930C9F38917B9F2DF01A80F8F
:101ED000B11D2C912D3339F0203211F0293009F445
:101EE0001C928F5FF1CF891741F28F5F1C925F01C7
:101EF000A80EB11CD5012C91203221F48F5F8913DB
:101F0000F6CFBBCF2930D1F3891709F4B6CF6DE6F0
:101F100071E0C8010E943D2D892B19F5C5010E9471
:101F20009723BC01990F880B990B0E94A42A4B019F
:101F30005C0100913E0410913F049B01AC01F8014B
:101F4000618D728D838D948D0E94F029882309F410
:101F500094CFD80159968D929D92AD92BC925C9788
:101F600034C162E771E0C8010E943D2D892B19F54B
:101F7000C5010E949723BC01990F880B990B0E9401
:101F8000A42A4B015C0100913E0410913F049B0187
:101F9000AC01F801658D768D878D90A10E94F029A6
:101FA000882309F46ACFD8015D968D929D92AD92F7
:101FB000BC9290970AC167E771E0C8010E943D2D6D
:101FC000892B39F400913E0410913F040A5F1F4FA2
:101FD00074C06AE771E0C8010E943D2D892B89F425
:101FE00000913E0410913F04C5010E949723F8011F
:101FF000268937892817390709F43FCF978B868BB5
:10200000E4C06EE771E0C8010E943D2D892B99F470
:1020100000913E0410913F04C5010E949723D8010E
:1020200014962C91149730E02817390709F425CF1E
:1020300014968C93CAC061E871E0C8010E943D2DDE
:10204000892B81F400913E0410913F04C5010E9448
:102050009723F801258130E02817390709F40DCFBF
:102060008583B3C064E871E0C8010E943D2D892BCF
:10207000A9F400913E0410913F04C5010E949723EA
:10208000D80191962D913C9192972817390709F420
:10209000F4CE92969C938E93919797C067E871E0E7
:1020A000C8010E943D2D892BA1F4F50113820091F6
:1020B0003E0410913F040C5D1F4FB501C8010E9402
:1020C0003D2D892B09F4D9CEB501C8010E94462DBA
:1020D0007CC06AE871E0C8010E943D2D892B99F40B
:1020E00000913E0410913F04C5010E949723D8013E
:1020F00093962C91939730E02817390709F4BDCEB9
:1021000093968C9362C06DE871E0C8010E943D2DEA
:10211000892B81F400913E0410913F04C5010E9477
:102120009723F80120A530E02817390709F4A5CE38
:1021300080A74BC060E971E0C8010E943D2D892B4A
:1021400099F400913E0410913F04C5010E94972329
:10215000D80199962C91999730E02817390709F4FE
:102160008CCE99968C9331C063E971E0C8010E94CE
:102170003D2D892B89F400913E0410913F04C50147
:102180000E949723F80122A533A52817390709F4DF
:1021900074CE93A782A719C066E971E0C8010E94B6
:1021A0003D2D892BA9F400913E0410913F04C501F7
:1021B0000E949723D8019C962C919C9730E0281779
:1021C000390709F45ACE9C968C93FF24F39455CE8C
:1021D00069E971E0C8010E943D2D892B09F04DCEBF
:1021E000E0914004F0914104DF012C2D1D922A95CD
:1021F000E9F780914004909141040E94060B3DCE86
:10220000FF2031F080913E0490913F040E94EC0A3F
:1022100062E083E00E94A1061092FD011092FC0191
:1022200088E893E1A0E0B0E08093F0019093F101A1
:10223000A093F201B093F3011092F4011092F50112
:102240001092F6011092F7018FEA95E09093010148
:102250008093000180916900836080936900E89A0F
:102260000E9434076093F8017093F9018093FA019A
:102270009093FB011092F4011092F5011092F60177
:102280001092F70186E494E00E94EE0C86E494E05C
:102290000E943A0A73EAE72E73E0F72E14E6D7019C
:1022A000E12F1D92EA95E9F78BE592E09F938F93DA
:1022B000FF92EF920E94BD23B70186E494E00E9452
:1022C000DA05D701E12F1D92EA95E9F78AE492E059
:1022D0009F938F93FF92EF920E94BD23B70186E4F4
:1022E00094E00E94DA05D701E12F1D92EA95E9F703
:1022F0008AE392E09F938F93FF92EF920E94BD2317
:10230000B70186E494E00E94DA05D7011D921A9580
:10231000E9F78AE292E09F938F93FF92EF920E94F7
:10232000BD23B70186E494E00E94DA0507E014E0DB
:102330000FB6F894DEBF0FBECDBFE8ECEE2EF12C49
:10234000C7010E94C428D8018D938D01BFEFEB1AFD
:10235000FB0AE0EDEE16F10499F783E080930401A7
:1023600061E08DE00E94A10660E08DE00E947106B0
:102370006AE070E080E090E00E94FA0661E08DE0A3
:102380000E9471066AE070E080E090E00E94FA0628
:102390006CE084E095E00E94910A6BE088E095E0B3
:1023A0000E94910A6AE08CE095E00E94910A69E03F
:1023B00080E195E00E94910A1092FC041092FD04C5
:1023C000EFEAF4E085919491082FE1EBF4E01491A9
:1023D000E2EBF4E0E491E093FE04E3EBF4E0E4915B
:1023E000E093FF04E4EBF4E0E491E09300057C016A
:1023F0008E2D801B811750F4F701649188EF94E0D3
:102400000E94ED07FFEFEF1AFF0AF2CF89EC92E08E
:1024100090930305809302050E94C40C8EE991E01D
:102420009F938F938AEB92E09F938F9389E492E03E
:102430009F938F930E94BD2340E060E088EF94E07B
:102440000E94F5070F900F900F900F900F900F9034
:1024500080911304811103C064EA71E002C066EA4E
:1024600071E088EF94E00E94EE0569E472E088EF85
:1024700094E00E94EE0541E060E088EF94E00E9465
:10248000F5070E94840C20E030E040EF51E40E9408
:10249000112920E030E048E451E40E94C72B0E945B
:1024A0006C2A6C5E7F4F77FD06C0653671052CF097
:1024B00064E670E002C061E070E07F936F938CEAA5
:1024C00092E09F938F9309E412E01F930F930E9471
:1024D000BD23B80188EF94E00E94EE0589EA92E0FE
:1024E0009F938F931F930F930E94BD23B80188EF92
:1024F00094E00E94EE0542E060E088EF94E00E94E4
:10250000F507809131048F93809130048F9380EA96
:1025100092E09F938F931F930F930E94BD23B80166
:1025200088EF94E00E94EE058CE992E09F938F93F0
:102530001F930F930E94BD23B80188EF94E00E947F
:10254000EE0543E060E088EF94E00E94F50780919B
:102550003B041F928F9383E992E09F938F931F9385
:102560000F930E94BD23B80188EF94E00E94EE050E
:1025700044E060E088EF94E00E94F5078091260433
:102580008F93809125048F938DE892E09F938F9392
:102590001F930F930E94BD230FB6F894DEBF0FBEAA
:1025A000CDBFB80188EF94E00E94EE05809115043C
:1025B000882361F045E060E088EF94E00E94F50731
:1025C00065E174E088EF94E00E94EE0547E062E385
:1025D00088EF94E00E94F50768EA71E088EF94E0E4
:1025E0000E94EE0568E873E180E090E00E94FA0640
:1025F0000E94C40C8FEF9FEFAC01435A534059AF78
:1026000048AF85E10E94DD06853F91401CF01092A5
:10261000130407C081E08093130460E082E10E940C
:1026200071060E94840C20E030E040EF51E40E94EB
:1026300011290E946C2A161617064CF068EE73E0FA
:1026400080E090E00E94FA0681E08093130486E423
:1026500094E00E943A0A0E9434076B017C0162E018
:10266000762E11E00E94340746015701861A970A18
:10267000A80AB90AC616D706E806F90618F0D50161
:10268000C40106C0D501C40180959095A095B09570
:10269000883E9340A105B10508F0E4C20E94AF0A4C
:1026A000892B09F0DFC286E494E00E941705892B8C
:1026B000C9F286E494E00E942F05082F8091CF0490
:1026C0009091D004A091D104B091D2040196A11DA3
:1026D000B11D8093CF049093D004A093D104B09304
:1026E000D204043209F49DC2E091CC04053234F4E2
:1026F0000A3071F00D3009F0A1C20AC00A3241F06F
:102700000C3209F09BC28091B90480278093B904F0
:10271000EF3008F078C2F0E0E554FB4F1082809172
:10272000BA04882309F46EC12091BB043FEB320F39
:10273000822F022E000C990B363010F4C79707C079
:102740002156263018F48755910901C0C097382FBB
:102750003295307F2091BC044FEB420F822F022E26
:10276000000C990B463010F4C79707C0215626304D
:1027700018F48755910901C0C097830F9091B9044F
:10278000891336C18091CD04882309F4EBC0809170
:10279000D3049091D40401969093D4048093D304ED
:1027A0008091AD049091AE04A091AF04B091B004BB
:1027B0008093A9049093AA04A093AB04B093AC04B3
:1027C0008091B5049091B604A091B704B091B8047B
:1027D0008093B1049093B204A093B304B093B40473
:1027E0008091CA04882309F464C0813009F00BC2C7
:1027F0008091690490916A04A0916B04B0916C047B
:102800008093650490936604A0936704B093680472
:102810008091710490917204A0917304B09174043A
:1028200080936D0490936E04A0936F04B093700432
:102830008091790490917A04A0917B04B0917C04FA
:102840008093750490937604A0937704B0937804F2
:102850008091810490918204A0918304B0918404BA
:1028600080937D0490937E04A0937F04B0938004B2
:102870008091910490919204A0919304B09194045A
:1028800080938D0490938E04A0938F04B093900452
:102890008091990490919A04A0919B04B0919C041A
:1028A0008093950490939604A0939704B093980412
:1028B000AAC18091890490918A04A0918B04B0915F
:1028C0008C048093850490938604A0938704B0932E
:1028D00088048091690490916A04A0916B04B0917E
:1028E0006C048093650490936604A0936704B0938E
:1028F00068048091790490917A04A0917B04B0914E
:102900007C048093750490937604A0937704B0932D
:1029100078048091810490918204A0918304B09105
:10292000840480937D0490937E04A0937F04B093ED
:1029300080048091A7049091A8049093A6048093AA
:10294000A5048091A1049091A204A091A304B09148
:10295000A40480939D0490939E04A0939F04B0933D
:10296000A00451C18091690490916A04A0916B0404
:10297000B0916C040097A105B10509F444C14091E0
:10298000AD045091AE046091AF047091B0044093D7
:10299000A9045093AA046093AB047093AC042091F3
:1029A000CA042223E1F0213009F02DC1809365048F
:1029B00090936604A0936704B093680480917104B7
:1029C00090917204A0917304B091740480936D048B
:1029D00090936E04A0936F04B093700414C180931D
:1029E000650490936604A0936704B09368040BC1D8
:1029F0008091D5049091D60401969093D60480934B
:102A0000D50401C19091CB0491111EC04BEB54E051
:102A1000E6EBF1E0CA01DC012D91CD01222311F496
:102A20000C949A2231912317B1F3E6EEF1E0DA012A
:102A30008D91AD01882311F40C949E2291918917F8
:102A4000B1F37092CA04DFC0E091CA04E23009F425
:102A5000DAC08091BB04882309F4D5C0B0E2EB9FB3
:102A6000F0011124E92B3197E932F10508F0CBC0D0
:102A7000EC5CFF4F0C94F52C0E944A0B60936904A8
:102A800070936A0480936B0490936C040E943407E3
:102A90006093AD047093AE048093AF049093B00440
:102AA000B2C091E0813409F08BC08BC08091CE041C
:102AB000882319F00E94230C02C00E94A40B60938B
:102AC000790470937A0480937B0490937C040E9431
:102AD00034076093B5047093B6048093B704909361
:102AE000B80491C0833509F08EC08091790490912B
:102AF0007A04A0917B04B0917C04B095A095909548
:102B000081959F4FAF4FBF4F8093790490937A0484
:102B1000A0937B04B0937C0476C08091CE0488237C
:102B200019F00E94230C02C00E94A40B6093810440
:102B300070938204809383049093840464C08735E7
:102B400009F061C08091810490918204A091830476
:102B5000B0918404B095A095909581959F4FAF4F0B
:102B6000BF4F8093810490938204A0938304B09319
:102B7000840449C00E944A0B6093910470939204AC
:102B800080939304909394043EC00E944A0B6093F8
:102B9000990470939A0480939B0490939C0433C08F
:102BA0008BEB94E00E94200B60937104709372048D
:102BB000809373049093740426C091E081330CF4E5
:102BC00090E09093CD041FC08BEB94E00E9497237C
:102BD00099279093A8048093A70415C00E944A0BDC
:102BE0006093A1047093A2048093A3049093A4041F
:102BF0000AC00E944A0B6093890470938A048093F0
:102C00008B0490938C048091CB048F5F8093CB04D2
:102C10001092CC0481E00A3209F080E08093BA047B
:102C200042CD1092CC041092CB041092B904709251
:102C3000CA041092BA041092CD0435CDEE3040F49F
:102C400081E08E0F8093CC04F0E0E554FB4F0083CD
:102C50008091BA04811127CD8091B9048027809397
:102C6000B90421CD0E94AF0A892B11F40C948F2254
:102C70002091F4013091F5014091F6015091F70156
:102C80002D873E874F87588B0E9434076093F80149
:102C90007093F9018093FA019093FB011092F40173
:102CA0001092F5011092F6011092F7018091B50291
:102CB0009091B602A091B702B091B802FC01EE0F5C
:102CC000FF1FEE0FFF1FBF016B577D4F2D853E8508
:102CD0004F855889FB012083318342835383BC0194
:102CE000CD016F5F7F4F8F4F9F4F2CE030E040E072
:102CF00050E00E94D32C6093B5027093B60280938B
:102D0000B7029093B802E5E8F2E060E070E0CB0132
:102D10000191119121913191600F711F821F931FB9
:102D200022E0E53BF207A1F70E94A22A6B017C0199
:102D300022EB35EC4CEF55E30E94C72B9B01AC0115
:102D400060E070E080E89FE30E9411299B01AC01E4
:102D5000C701B6010E94FA290E94732A69837A8307
:102D60008B839C838091810290918202A091830247
:102D7000B09184022D853E854F855889820F931F1F
:102D8000A41FB51F8093810290938202A0938302B7
:102D9000B093840280917D0290917E02A0917F0287
:102DA000B09180020596A11DB11D80937D02909384
:102DB0007E02A0937F02B09380028091790290916D
:102DC0007A02A0917B02B0917C0229813A814B81E9
:102DD0005C8182179307A407B50740F4209379021A
:102DE00030937A0240937B0250937C0280910704D7
:102DF00090910804A0910904B0910A042D853E85A4
:102E00004F855889820F931FA41FB51F8093070415
:102E100090930804A0930904B0930A0480910B04D2
:102E200090910C04A0910D04B0910E04BC01CD0151
:102E30006B5F7F4F8F4F9F4F60930B0470930C0419
:102E400080930D0490930E0420E13EE040E050E0BA
:102E50000E94D32C672B682B692B21F487E094E028
:102E60000E94060B80917702909178028C30910538
:102E70004CF426E520930701019690937802809305
:102E800077020DC089819A81AB81BC81892B8A2B05
:102E90008B2B11F486E501C081E4809307018091BA
:102EA00076028111BFC080910601813409F0BAC059
:102EB000C0906D04D0906E04E0906F04F0907004A8
:102EC0008091A9049091AA04A091AB04B091AC04A4
:102ED0008F3F9F4FAF4FBF4F09F4A4C00E943407EC
:102EE0000091A9041091AA042091AB043091AC0484
:102EF000DC01CB01801B910BA20BB30B8F3F9F4FCB
:102F0000AF4FBF4F09F48EC0C701B60120E137E2D1
:102F100040E050E00E94D32C1F922F93C701B601CE
:102F200024E630E040E050E00E94D32CCA01B90111
:102F300024E630E040E050E00E94D32C7F936F9372
:102F4000809126048F93809125048F9385EB94E0E4
:102F50009F938F9389E692E09F938F930E94BD2366
:102F600081E08093760289ED94E00E943A0A0FB6E0
:102F7000F894DEBF0FBECDBF6CEB71E089ED94E03D
:102F80000E94EE0569E672E089ED94E00E94EE058C
:102F90006DE089ED94E00E94C30480E00E94630A22
:102FA000811112C060E084E00E94710664E670E066
:102FB00080E090E00E94FA0661E084E00E947106E1
:102FC00081E00E94630AD8CF86E296E09F938F93B8
:102FD00009E412E01F930F930E94BD23B80189ED0D
:102FE00094E00E94EE0580E296E09F938F931F93FA
:102FF0000F930E94BD23B80189ED94E00E94EE0575
:103000008CE096E09F938F931F930F930E94BD23B4
:10301000B80189ED94E00E94EE050FB6F894DEBF8A
:103020000FBECDBF84E6E3EAF3E0DF011D928A958F
:10303000E9F78CE0EDE3F2E0DF01282F1D922A95FD
:10304000E9F7E1E3F2E0DF011D928A95E9F780E21A
:10305000E9E4F2E0DF011D928A95E9F780906D04C2
:1030600090906E04A0906F04B0907004C0906504BE
:10307000D0906604E0906704F09068048091A90401
:103080009091AA04A091AB04B091AC048F3F9F4FE4
:10309000AF4FBF4F89F00E9434070091A9041091EF
:1030A000AA042091AB043091AC042B013C01401ADE
:1030B000510A620A730A04C044244A94542C32010F
:1030C000C501B40124E630E040E050E00E94D32C7A
:1030D000613571058105910518F420ED37E002C0D6
:1030E0002CE637E0472046204520409409F44DC0A7
:1030F000A901460F571F5DA74CA7C501B40124E6DF
:1031000030E040E050E00E94D32CCA01B90124E62F
:1031100030E040E050E00E94D32C6BA730E1432E1A
:1031200037E2532E612C712CC501B401A301920129
:103130000E94D32C2AA7C701B60120E432E44FE055
:1031400050E00E94D32C29A7C701B601A301920128
:103150000E94D32CCA01B90124E630E040E050E0DF
:103160000E94D32C6D8FC701B60124E630E040E009
:1031700050E00E94D32CCA01B90124E630E040E0BF
:1031800050E00E94D32C698F09C0198E1D8E19A69C
:103190001AA61BA68CED97E09DA78CA780907504BE
:1031A00090907604A0907704B090780420917D04EC
:1031B00030917E0440917F045091800429873A87A2
:1031C0004B875C878091B1049091B204A091B304C5
:1031D000B091B4048F3F9F4FAF4FBF4F11F00E948B
:1031E00034078091CD04811102C086E501C081E4DD
:1031F0008093060160918504709186048091870414
:10320000909188046F3F49EC74074AE984074BE3C7
:10321000940761F00E94A42A20E030E048EC52E4D8
:103220000E94FA2969A37AA38BA306C019A254E2CB
:103230005AA384E78BA399E49CA360918D047091B9
:103240008E0480918F04909190046F3FA9EC7A07CF
:10325000AAE98A07ABE39A07E9F00E94A22A20E0D4
:1032600030E048EC52E40E94FA296B017C0120E036
:1032700030E040E85FEB0E94F029882389F026E5E2
:103280003EE04DEE5FE3C701B6010E94C72B6B0124
:103290007C0106C0C12CD12C20E8E22E2FEBF22EAF
:1032A0002090A5043090A60420919D0430919E04A6
:1032B00040919F045091A0042D833E834F835887F3
:1032C000B7FE0BC0B094A09490948094811C911C84
:1032D000A11CB11C33E53D8B02C04EE44D8B8985AA
:1032E0009A85AB85BC85B7FF0EC0B095A09590952B
:1032F00081959F4FAF4FBF4F89879A87AB87BC8718
:1033000097E5998B02C0A5E4A98BBFEF8B16B9ECAA
:103310009B06BAE9AB06BBE3BB0619F024013501F5
:1033200003C0412C512C3201C301B20120EA36E81E
:1033300041E050E00E94D32C2DA33FA3142F052F72
:10334000502F60EA76E881E090E00E94AF2CA30164
:103350009201261B370B480B590BCA01B9012AE011
:1033600030E040E050E00E94D32C5F934F933F93B6
:103370002F930F931F933FA13F934DA14F938EEE39
:1033800094E09F938F938DE392E09F938F930E949D
:10339000BD230FB6F894DEBF0FBECDBF29853A8599
:1033A0004B855C852F3F89EC38078AE948078BE31A
:1033B000580719F029013A0103C0412C512C320160
:1033C000C301B20120EA36E841E050E00E94D32C6C
:1033D0002DA33FA3142F052F502F60EA76E881E03C
:1033E00090E00E94AF2CA3019201261B370B480BE3
:1033F000590BCA01B9012AE030E040E050E00E94D8
:10340000D32C5F934F933F932F930F931F933FA121
:103410003F934DA14F9382EE94E09F938F9381E36E
:1034200092E09F938F930E94BD230FB6F894DEBF66
:103430000FBECDBF20E034E244E759E469A17AA190
:103440008BA19CA10E94F029882329F0F9A1EAA16F
:103450005BA13CA104C0F0E0E0E050E030E009E412
:1034600012E022E040E06F2F7E2F852F932F0E94E5
:10347000772384E6E3EAF3E0DF011D928A95E9F71A
:103480002D813E814F8158852F3F3F4F4F4F5F4FDA
:1034900021F41D821E821F8218869FEF2916310497
:1034A00011F0C10102C080E090E0A9890A2E000C51
:1034B000BB0BBEA3ADA3ED890E2E000CFF0BF8A72E
:1034C000EFA3398D232F30E03FA72EA75D8D452F29
:1034D00050E059AB48ABB9A5AB2FB0E0BBABAAAB42
:1034E000FAA5EF2FF0E0FDABECAB3BA5232F30E0CE
:1034F0003FAB2EAB48854F935F815F93AE81AF9317
:10350000BD81BF939F938F9320910601822F022E3E
:10351000000C990B9F932F9389E492E09F938F93D4
:10352000EEA1EF93F989FF9381E392E09F938F934C
:1035300028A52F933D893F938DE392E09F938F932E
:1035400020910701822F022E000C990B9F932F933D
:10355000809184028F93809183028F938091820265
:103560008F93809181028F9348894F935F855F93FA
:103570008E858F939D859F93AC81AF93BB81BF93C5
:10358000EA81EF93F981FF931F92298D2F931F9268
:103590003D8D3F931F9249A54F931F925AA55F936C
:1035A0001F928BA58F939DA59F93ACA5AF93809100
:1035B00026048F93809125048F9384EC91E09F9350
:1035C0008F938CEB95E09F938F9303EA13E01F9307
:1035D0000F930E94BD23F80101900020E9F7CF016D
:1035E0000197835A9340AC015527BA016D557C4F22
:1035F000DB011C922091A403A5EAB3E00FB6F89476
:10360000DEBF0FBECDBF88AD99AD8A0F9B1F84175B
:1036100095071CF48D912827F6CF203128F41F92AE
:103620002F9387EB95E004C01F922F9383EB95E0D7
:103630009F938F937F936F930E94BD230F900F9062
:103640000F900F900F900F908091CD04882309F474
:10365000A1C1C501B4010E94A22A20E836E948E1CF
:103660005BE40E94FA292B013C010E946C2A072E80
:10367000000C880B990B0E94A42A4B015C019B0152
:10368000AC01C301B2010E94112920E030E040E703
:1036900052E40E94FA2920E030E048EC52E40E9413
:1036A000C72BA50194010E9412296D837E838F830D
:1036B000988769857A858B859C850E94A22A20E857
:1036C00036E948E15BE40E94FA292B013C010E94A3
:1036D0006C2A072E000C880B990B0E94A42A4B0120
:1036E0005C019B01AC01C301B2010E94112920E0E1
:1036F00030E040E752E40E94FA2920E030E048EC54
:1037000052E40E94C72BA50194010E9412296987E7
:103710007A878B879C8720E030E040EA50E4C7013D
:10372000B6010E94BA2B18161CF405E010E002C086
:1037300009E110E020E030E040E251E4C701B601C9
:103740000E94BA2B181614F40AE010E020E030E0D2
:1037500040E751E4C701B6010E94BA2B181614F4D1
:1037600004E110E0809105018823D9F02D813E818C
:103770004F81588520932D0230932E0240932F02C3
:103780005093300289859A85AB85BC858093290248
:1037900090932A02A0932B02B0932C021092050161
:1037A000F9C02091290230912A0240912B025091B8
:1037B0002C0269857A858B859C850E94112925E3D9
:1037C0003AEF4EE85CE30E94C72B6B017C010E943C
:1037D000342C6D8F7E8F8F8F98A3C701B6010E9406
:1037E000F529698B7A8B8B8B9C8B25E33AEF4EE81E
:1037F0005CE36D817E818F8198850E94C72B6B0170
:103800007C0125E33AEF4EE85CE360912D02709174
:103810002E0280912F02909130020E94C72B2B0123
:103820003C01C701B6010E94342C4B015C01C70169
:10383000B6010E94F5296D8B7E8B8F8B988FC3010B
:10384000B2010E94342C698F7A8F8B8F9C8FC301B9
:10385000B2010E94F5296B017C01298D3A8D4B8DB7
:103860005C8D6D897E898F89988D0E94C72B2B0175
:103870003C01A7019601C501B4010E94C72B29890B
:103880003A894B895C890E94C72B9B01AC01C3011B
:10389000B2010E9411299B01AC010E94C72B2B0190
:1038A0003C012D8D3E8D4F8D58A1C701B6010E9460
:1038B000C72B9B01AC010E94C72B9B01AC01C3012C
:1038C000B2010E9412290E94422C2B013C01298D39
:1038D0003A8D4B8D5C8DC501B4010E94C72B4B0105
:1038E0005C01A70196016D897E898F89988D0E9460
:1038F000C72B29893A894B895C890E94C72B9B0178
:10390000AC01C501B4010E9412299B01AC01C301A5
:10391000B2010E94912926E73BE742EC5AE40E945B
:10392000C72B0E946C2A012E000C220B330B0617AA
:1039300017072807390770F5009125021091260214
:103940002091270230912802DC01CB01800F911FCA
:10395000A21FB31F8093250290932602A0932702F3
:10396000B09328022D813E814F81588520932D02EE
:1039700030932E0240932F025093300289859A850E
:10398000AB85BC858093290290932A02A0932B02D9
:10399000B0932C020E94C40C809113048111F6C1D3
:1039A00080907D0290907E02A0907F02B090800275
:1039B000C501B40120E13EE040E050E00E94D32C7C
:1039C00069017A01309324022093230224ECA6019A
:1039D00024038001259F100D1124C501B4012CE39F
:1039E00030E040E050E00E94D32C200F311F309394
:1039F0002202209321023F932F93DF92CF9288EAF5
:103A000095E09F938F9389E492E09F938F930E9418
:103A1000BD2342E06CE588EF94E00E94F50781E069
:103A20008093010569E472E088EF94E00E94DA0572
:103A30000FB6F894DEBF0FBECDBF80910701813471
:103A400021F48091CD0481116EC560E082E10E9475
:103A5000710640E060E088EF94E00E94F50782E0A4
:103A60008093010580E2EEEFF1E0DF011D928A957F
:103A7000E9F70E94A00C892B49F4ACE0B0E02D8559
:103A80003E854F8558890E94FB2C04C069817A814C
:103A90008B819C816031B7E27B0781059105A8F19C
:103AA0000E94A22A20E030E04AE754E40E94FA296A
:103AB00009E412E023E044E00E94772344E050E070
:103AC000B8018EEF91E00E944D2DEEEFF1E00190F4
:103AD0000020E9F7329780818E3209F410826EEF70
:103AE00071E088EF94E00E94EE0581E0809301058B
:103AF0008DED94E09F938F9389E492E09F938F9351
:103B00000E94BD2369E472E01AC00E94A22A09E45F
:103B100012E020E040E00E947723B80188EF94E0B3
:103B20000E94EE0581E08093010588ED94E09F936B
:103B30008F93C8019F930F930E94BD23B80188EF14
:103B400094E00E94EE050F900F900F900F9081E08F
:103B5000809301058091CD0441E081111AC06CE58C
:103B600088EF94E00E94F50781EA95E09F938F9398
:103B700089E492E09F938F930E94BD2369E472E0F1
:103B800088EF94E00E94DA050F900F900F900F904D
:103B900028C06EE688EF94E00E94F5073F922F92CE
:103BA0008AEC91E09F938F9309E412E01F930F93A7
:103BB0000E945C2DB80188EF94E00E94EE058FE929
:103BC00095E09F938F931F930F930E94BD23B8019D
:103BD00088EF94E00E94DA050FB6F894DEBF0FBEBE
:103BE000CDBF42E060E088EF94E00E94F50780914D
:103BF000140481111EC069817A818B819C810E948D
:103C0000A22A209128043091290440912A0450913D
:103C10002B040E94FA2909E412E023E040E00E940C
:103C20007723B80188EF94E00E94EE0588E995E0DB
:103C30001FC0813069F569817A818B819C810E94E6
:103C4000A22A20912C0430912D0440912E045091F1
:103C50002F040E94C72B09E412E023E040E00E94F9
:103C60007723B80188EF94E00E94EE0581E995E0A2
:103C70009F938F93C8019F930F930E94BD23B80118
:103C800088EF94E00E94DA050F900F900F900F904C
:103C900080911E0290911F02892BD9F1609125021B
:103CA0007091260280912702909128020E94A22AF8
:103CB00020E030E04AE754E40E94FA2909E412E0E7
:103CC00021E040E00E947723F80101900020E9F70D
:103CD0003197E954F2408E2F880FE80FEE0F64E71A
:103CE0006E1B43E088EF94E00E94F507B80188EF6F
:103CF00094E00E94EE058EE895E09F938F931F93CA
:103D00000F930E94BD23B80188EF94E00E94DA056A
:103D1000ECC28091CD04882359F009E412E020E040
:103D200040E069A17AA18BA19CA10E9477230EC0DB
:103D30008BE895E09F938F9389E492E09F938F9314
:103D40000E94BD230F900F900F900F90E9E4F2E0D6
:103D500001900020E9F73197E954F2408E2F880F47
:103D6000E80FEE0F6AE76E1B43E088EF94E00E94D5
:103D7000F50769E472E088EF94E00E94EE0562E8DE
:103D800071E088EF94E00E94DA05B3C2813009F057
:103D900096C260E082E10E947106809130049091A9
:103DA0003104A0E0B0E029813A814B815C81821727
:103DB0009307A407B50710F461E001C060E082E159
:103DC0000E94710640E060E088EF94E00E94F507F1
:103DD00082E08093010580E2EEEFF1E0DF011D92C9
:103DE0008A95E9F70E94A00C892B49F4ACE0B0E079
:103DF0002D853E854F8558890E94FB2C04C0698122
:103E00007A818B819C810E94A22A20912804309182
:103E1000290440912A0450912B040E94FA296B0135
:103E20007C0120E030E04AE754E40E94BA2B87FD91
:103E30002BC020E030E04AE754E4C701B6010E94FD
:103E4000FA2909E412E022E044E00E94772345E0E9
:103E500050E0B8018EEF91E00E944D2DEEEFF1E0C1
:103E600001900020E9F7329780818E3209F41082A8
:103E70006EEF71E088EF94E00E94EE0581E08093A0
:103E8000010582ED94E051C020E030E040E251E4D1
:103E9000C701B6010E94BA2B09E412E087FD23C0D6
:103EA00022E044E0C701B6010E94772345E050E0DC
:103EB000B8018EEF91E00E944D2DEEEFF1E0019000
:103EC0000020E9F7329780818E3209F410826EEF7C
:103ED00071E088EF94E00E94EE0581E08093010597
:103EE0008CEC94E022C023E044E0C701B6010E94BC
:103EF000772346E050E0B8018EEF91E00E944D2D0F
:103F0000EEEFF1E001900020E9F7329780818E32E8
:103F100009F410826EEF71E088EF94E00E94EE05E4
:103F200081E08093010586EC94E09F938F9389E470
:103F300092E09F938F930E94BD2369E472E088EF23
:103F400094E00E94EE050F900F900F900F909EEF5F
:103F5000E92E91E0F92E80E2F70111928A95E9F7B6
:103F600042E060E088EF94E00E94F50781E08093F2
:103F7000010580911E0290911F02892B09F4ECC06B
:103F80000E94840C20E030E040EF51E40E941129AF
:103F90000E946C2A161617063CF06EEC71E088EF52
:103FA00094E00E94EE05A5C129813A814B815C8194
:103FB000293E83E038074105510598F1CA01B9014E
:103FC0000E94A22A20E030E04AE754E40E94FA2945
:103FD00009E412E021E040E00E94772345E050E050
:103FE000B8018EEF91E00E944D2DF7010190002065
:103FF000E9F7329780818E3209F410826EEF71E01A
:1040000088EF94E00E94EE0585E895E09F938F93FA
:1040100089E492E09F938F930E94BD2369E472E04C
:104020001BC069817A818B819C810E94A22A09E44C
:1040300012E020E040E00E947723B80188EF94E08E
:104040000E94EE0580E895E09F938F93C8019F93AF
:104050000F930E94BD23B80188EF94E00E94EE0503
:104060000F900F900F900F9069817A818B819C81C6
:104070000E94A22A20912C0430912D0440912E04FC
:1040800050912F040E94C72B6B017C0120E034E289
:1040900044E759E40E94BA2B1816F4F420E034E205
:1040A00044E759E4C701B6010E94FA2909E412E085
:1040B00021E040E00E94772345E050E0B8018EEF18
:1040C00091E00E944D2D6EEF71E088EF94E00E9428
:1040D000EE0589E795E037C020E030E44CE156E496
:1040E000C701B6010E94BA2B1816F4F420E030E0A4
:1040F0004AE754E4C701B6010E94FA2909E412E034
:1041000020E040E00E94772345E050E0B8018EEFC8
:1041100091E00E944D2D6EEF71E088EF94E00E94D7
:10412000EE0582E795E00FC009E412E020E040E0F0
:10413000C701B6010E947723B80188EF94E00E947E
:10414000EE058CE695E09F938F93C8019F930F93A4
:104150000E94BD23B801C5C00E94840C20E030E05D
:1041600040EF51E40E9411290E946C2A161617068E
:104170000CF013CF88E695E09F938F9389E4682E27
:1041800082E0782E7F926F920E94BD23B30188EF68
:1041900094E00E94EE056091790270917A0280911C
:1041A0007B0290917C020E94A22A209128043091E7
:1041B000290440912A0450912B040E94FA2983017A
:1041C00021E040E00E947723B30188EF94E00E9451
:1041D000EE0582E695E09F938F937F926F920E9407
:1041E000BD23B30188EF94E00E94EE058EE595E0D3
:1041F0009F938F937F926F920E94BD23B30188EFAC
:1042000094E00E94EE0560910B0470910C04809183
:104210000D0490910E040E94A22A6B017C01609112
:104220000704709108048091090490910A040E9487
:10423000A22A4B015C0120E030E040E752E4C701D4
:10424000B6010E94FA299B01AC01C501B4010E948C
:10425000FA29209128043091290440912A04509190
:104260002B040E94FA294B015C0120E030E041E67A
:1042700055E4C701B6010E94FA299B01AC01C501B2
:10428000B4010E94C72B20E040E00E947723B301D5
:1042900088EF94E00E94EE058BE595E09F938F9365
:1042A0007F926F920E94BD23B30188EF94E00E9439
:1042B000EE050FB6F894DEBF0FBECDBF1AC045E0C5
:1042C00060E088EF94E00E94F5078EE495E09F930C
:1042D0008F9389E492E09F938F930E94BD2369E4BA
:1042E00072E088EF94E00E94EE050F900F900F901F
:1042F0000F9080912002882349F1BFA5BF93EEA5BE
:10430000EF93F9A9FF9328A92F933BA93F934AA9BB
:104310004F935FA95F938EA98F939DA99F93ACA99B
:10432000AF9385E395E09F938F9389E492E09F9309
:104330008F930E94BD2343E060E088EF94E00E94E9
:10434000F50769E472E088EF94E02DC043E060E097
:1043500088EF94E00E94F5078FE195E09F938F939B
:1043600089E492E09F938F930E94BD2369E472E0F9
:1043700088EF94E00E94EE0560E082E10E94710601
:10438000E3EAF3E084E6DF011D928A95E9F783E131
:1043900095E09F938F93FF93EF930E94BD2363EA71
:1043A00073E086E494E00E94DA050FB6F894DEBF6D
:1043B0000FBECDBF40E06CE588EF94E00E94F507AA
:1043C0000E94A00C892B19F06CE571E002C068E531
:1043D00071E088EF94E00E94EE0540E060E788EF2E
:1043E00094E00E94F5070E94840C20E030E040EF4A
:1043F00051E40E94112920E030E040E751E40E949E
:10440000C72B0E946C2A6C5E7F4F77FD06C0643616
:1044100071052CF063E670E002C061E070E07F930C
:104420006F938EE095E09F938F9309E412E01F93C2
:104430000F930E94BD23B80188EF94E00E94EE051F
:1044400064EE71E088EF94E00E94EE05F8A5FF931A
:104450002FA12F938DE392E09F938F9384E095E0BB
:104460009F938F931F930F930E94BD2344E060E0BE
:1044700088EF94E00E94F507B80188EF94E00E946D
:10448000DA053EA13F934DA14F9381E392E09F93C4
:104490008F938AEF94E09F938F931F930F930E94C3
:1044A000BD2345E060E088EF94E00E94F507B80185
:1044B00088EF94E00E94DA0547E062E388EF94E039
:1044C0000E94F50768EA71E088EF94E00E94EE052B
:1044D00080911E0290911F0251E0852790931F0248
:1044E00080931E0263EA73E086E093E00E94DA059F
:1044F0000FB6F894DEBF0FBECDBF80917602882341
:1045000071F08091130481110AC089ED94E00E943A
:104510003A0A63EA73E089ED94E00E94DA050E94AA
:104520007A040C94011380912002882309F48DCA27
:1045300061E08CCA1093CA040C9403161092CA044A
:104540000C940316CF93DF93CCE0D1E0D0934704D3
:10455000C093460486E494E00E945005D093DA04A8
:10456000C093D90489ED94E0DF91CF910C9450056C
:10457000CF93E6E0F3E01382128288EE93E0A0E0AE
:10458000B0E084839583A683B7838EE191E0918325
:10459000808385EC90E09587848784EC90E0978712
:1045A000868780EC90E0918B808B81EC90E0938B00
:1045B000828B82EC90E0958B848B86EC90E0978BDD
:1045C000868B118E128E138E148EE8EFF4E0138218
:1045D0001282C1E0C187138612868EE491E0918336
:1045E000808320E045E066E089ED94E00E945A096E
:1045F000E5E6F4E04FEF5FEFBA0140835183628359
:10460000738310861186128613868FEF99ECAAE9C0
:10461000BBE3808B918BA28BB38B808F918FA28F0A
:10462000B38F80A391A3A2A3B3A380A791A7A2A7AE
:10463000B3A780AB91ABA2ABB3AB40AF51AF62AF0E
:1046400073AF8FEF90E09093A6048093A5044093FE
:10465000A9045093AA046093AB047093AC044093F4
:10466000B1045093B2046093B3047093B4041092F5
:10467000B9041092BA0482E08093CA041092CB0469
:104680001092CC041092CD041092CF041092D0045A
:104690001092D1041092D2041092D4041092D30438
:1046A0001092D6041092D5041092BB04C093CE048D
:1046B00020E047E068E086E494E00E945A09ECE3D9
:1046C000F4E089ED94E0918380838FE094E093831C
:1046D000828387E094E09583848383EA93E09783E1
:1046E000868384E690E091878087CF910895EF924A
:1046F0000F931F93CF93DF93E80147FD02C034E08F
:1047000001C034E1E42F440FFF0BF7FF03C0F19524
:10471000E195F109E32E022F2E2FAE010E94B22562
:10472000CE01DF91CF911F910F91EF900895FC0181
:1047300088279927E89421912032E9F3293010F055
:104740002E30C8F32B3241F02D3239F4689404C076
:104750000E94B523820F911D219120532A30C0F36E
:104760001EF4909581959F4F08957AE0979F902D24
:10477000879F802D910D11240895AEE0B0E0E3EC09
:10478000F3E20C94E8280D891E898EE08C831A834D
:1047900009838FEF9FE79E838D83AE01475E5F4F56
:1047A0006F89788DCE0101960E94E0232F81388594
:1047B000F801E20FF31F10822E96E4E00C94042916
:1047C000ACE0B0E0E6EEF3E20C94DA287C016B0199
:1047D0008A01FC0117821682838181FFBDC1CE014F
:1047E00001964C01F7019381F60193FD859193FFAA
:1047F00081916F01882309F4ABC1853239F493FDAF
:10480000859193FF81916F01853229F4B70190E082
:104810000E942E28E7CF512C312C20E02032A0F42A
:104820008B3269F030F4803259F0833269F42061C0
:104830002CC08D3239F0803339F4216026C02260DB
:10484000246023C0286021C027FD27C030ED380F29
:104850003A3078F426FF06C0FAE05F9E300D11244E
:10486000532E13C08AE0389E300D1124332E20625F
:104870000CC08E3221F426FD6BC1206406C08C363C
:1048800011F4206802C0883641F4F60193FD859149
:1048900093FF81916F018111C1CF982F9F7D955416
:1048A000933028F40C5F1F4FFFE3F9830DC083366C
:1048B00031F0833771F0833509F05BC022C0F80115
:1048C000808189830E5F1F4F44244394512C5401EF
:1048D00015C03801F2E06F0E711CF801A080B180A4
:1048E00026FF03C0652D70E002C06FEF7FEFC501AA
:1048F0002C870E9423282C0183012C852F77222EC0
:1049000017C03801F2E06F0E711CF801A080B18071
:1049100026FF03C0652D70E002C06FEF7FEFC50179
:104920002C870E9418282C012C852068222E8301B8
:1049300023FC1BC0832D90E048165906B0F4B70144
:1049400080E290E00E942E283A94F4CFF50127FCF3
:10495000859127FE81915F01B70190E00E942E288A
:1049600031103A94F1E04F1A51084114510471F793
:10497000E5C0843611F0893639F5F80127FF07C004
:1049800060817181828193810C5F1F4F08C06081BB
:104990007181072E000C880B990B0E5F1F4F2F762D
:1049A000722E97FF09C090958095709561957F4F05
:1049B0008F4F9F4F2068722E2AE030E0A4010E94A2
:1049C0006628A82EA81844C0853729F42F7EB22E59
:1049D0002AE030E025C0F22FF97FBF2E8F36C1F0DC
:1049E00018F4883579F0B4C0803719F0883721F091
:1049F000AFC02F2F2061B22EB4FE0DC08B2D84606E
:104A0000B82E09C024FF0AC09F2F9660B92E06C099
:104A100028E030E005C020E130E002C020E132E0D3
:104A2000F801B7FE07C060817181828193810C5FBC
:104A30001F4F06C06081718180E090E00E5F1F4FC4
:104A4000A4010E946628A82EA818FB2DFF777F2EB0
:104A500076FE0BC0372D3E7FA51450F474FE0AC0BD
:104A600072FC08C0372D3E7E05C0BA2C372D03C01E
:104A7000BA2C01C0B52C34FF0DC0FE01EA0DF11DAA
:104A80008081803311F4397E09C032FF06C0B394AF
:104A9000B39404C0832F867809F0B39433FD13C018
:104AA00030FF06C05A2CB31418F4530C5B18B32C07
:104AB000B31468F4B70180E290E03C870E942E288E
:104AC000B3943C85F5CFB31410F43B1801C0312CDE
:104AD00034FF12C0B70180E390E03C870E942E288B
:104AE0003C8532FF17C031FD03C088E790E002C06B
:104AF00088E590E0B7010CC0832F867859F031FF2C
:104B000002C08BE201C080E237FD8DE2B70190E088
:104B10000E942E28A51438F4B70180E390E00E948B
:104B20002E285A94F7CFAA94F401EA0DF11D808142
:104B3000B70190E00E942E28A110F5CF332009F490
:104B400051CEB70180E290E00E942E283A94F6CF31
:104B5000F7018681978102C08FEF9FEF2C96E2E1EB
:104B60000C94F6284F925F926F927F929F92AF9231
:104B7000BF92CF92DF92EF92FF920F931F93CF934A
:104B8000DF93CDB7DEB729970FB6F894DEBF0FBE1F
:104B9000CDBF6A01122FB02E2BE3201720F0FF2487
:104BA000F394F00E02C0BCE3FB2E0F2D27E0AE0104
:104BB0004F5F5F4F0E944027AC018981982F997009
:104BC000913031F0E1FC06C0E0FE06C090E205C085
:104BD0009DE203C09BE201C090E0EE2DE07183FFF7
:104BE0003CC0911102C083E001C084E0811718F439
:104BF000212F281B01C020E0E1110BC0F601822FFC
:104C000030E2882319F031938150FBCFC20ED11CC2
:104C100020E0992329F0D6019C93F60131966F018B
:104C2000C6010396E2FE0AC03EE4D6013C9341E48D
:104C300011964C93119712963C9306C03EE6F601EE
:104C4000308341E641833283FC01322F40E233233B
:104C500009F442C041933150FACF82FF44C0911110
:104C600002C083E001C084E0811718F4212F281BC3
:104C700001C020E0E1110BC0F601822F30E2882351
:104C800019F031938150FBCFC20ED11C20E0992343
:104C900029F0D6019C93F60131966F01C601039667
:104CA000E2FE0BC039E4D6013C933EE411963C93FE
:104CB000119736E412963C9307C039E6F60130832B
:104CC0003EE6318336E63283FC01322F40E2332365
:104CD00019F041933150FBCFFC01E20FF11D10821E
:104CE0008EEF9FEFB7C0F1E0911101C0F0E06F2FA0
:104CF00070E01416150624F49A012F5F3F4F02C08E
:104D000021E030E0260F371FBB2029F06B2D70E02B
:104D10006F5F7F4F02C060E070E0260F371F612F8A
:104D200070E0261737071CF4121B212F01C020E06A
:104D30003E2D387159F4D601322F60E2332319F039
:104D40006D933150FBCFC20ED11C20E0FF2331F018
:104D5000D6019C93B6016F5F7F4F6B01E1110BC0D1
:104D6000F601922F30E3992319F031939150FBCF44
:104D7000C20ED11C20E09F2D940F3A81782F7071C4
:104D8000A72E84FF03C0313309F49150191624F47F
:104D9000993018F098E001C091E0E42F852F57FF7B
:104DA00002C0E0E080E06E2F782FE0E0F0E0AEE2BD
:104DB0009A2E3A01691A71082A01461A570A0B2DD0
:104DC00010E01195019511096F3F8FEF780729F4D5
:104DD000D6019C92C60101966C014617570784F0D4
:104DE000661677066CF47F01E40CF51CA1E0B0E0D8
:104DF000AC0FBD1FEA0EFB1ED7011196BC9002C07E
:104E000090E3B92E615071093196C60101967C017B
:104E10006017710724F0D601BC926C01D5CF6417DE
:104E2000750741F4363320F4353321F4A11002C064
:104E300081E3B82EF601B082F701822F90E2882339
:104E400019F091938150FBCFF701E20FF11D108211
:104E500080E090E029960FB6F894DEBF0FBECDBF7C
:104E6000DF91CF911F910F91FF90EF90DF90CF9046
:104E7000BF90AF909F907F906F905F904F900895FC
:104E8000283008F027E03327DA01990F311D87FD1C
:104E9000916000966105710539F432602E5F3D9393
:104EA00030E32A95E1F708959F3F30F0803871058F
:104EB000610509F03C5F3C5F3D93913008F08068EC
:104EC000911DDF93CF931F930F93FF92EF92192FB2
:104ED000987F9695E92F96959695E90FFF27E05ACA
:104EE000FE4F99273327EE24FF24A701E701059001
:104EF0000894079428F4360FE71EF81E491F511D29
:104F0000660F771F881F991F0694A1F705900794D5
:104F100028F4E70EF81E491F561FC11D770F881F82
:104F2000991F661F0694A1F70590079428F4F80EC0
:104F3000491F561FC71FD11D880F991F661F771F56
:104F40000694A1F70590079420F4490F561FC71F38
:104F5000D81F990F661F771F881F0694A9F78491A1
:104F60001095177041F0D695C79557954795F794CA
:104F7000E7941A95C1F7E6E0F1E068941590159171
:104F800035916591959105907FE27395E118F10A4D
:104F9000430B560BC90BD009C0F7E10CF11E431FA0
:104FA000561FC91FD01D7EF4703311F48A95E6CFC9
:104FB000E894015030F0080F0AF40027021708F4B3
:104FC000202F2395022F7A3328F079E37D932A95B9
:104FD000E9F710C07D932A9589F606949795679511
:104FE000379517951794E118F10A430B560BC90B27
:104FF000D00998F023957E9173957A3308F070E389
:105000007C932013B8F77E9170617D9330F0839587
:1050100071E37D9370E32A95E1F71124EF90FF90FF
:105020000F911F91CF91DF91992787FD909508955A
:10503000FC010590615070400110D8F78095909563
:105040008E0F9F1F0895FC01615070400190011068
:10505000D8F7809590958E0F9F1F08950F931F93FB
:10506000CF93DF93FB01238121FD03C08FEF9FEFDF
:1050700028C022FF16C046815781248135814217FE
:10508000530744F4A081B1819D012F5F3F4F3183CD
:1050900020838C93268137812F5F3F4F3783268370
:1050A00010C0EB01092F182F0084F185E02D099520
:1050B000892BE1F68E819F8101969F838E83812FBC
:1050C000902FDF91CF911F910F910895FA01AA2798
:1050D000283051F1203181F1E8946F936E7F6E5F3B
:1050E0007F4F8F4F9F4FAF4FB1E03ED0B4E03CD0E9
:1050F000670F781F891F9A1FA11D680F791F8A1FCC
:10510000911DA11D6A0F711D811D911DA11D20D032
:1051100009F468943F912AE0269F11243019305DEC
:105120003193DEF6CF010895462F4770405D4193DD
:10513000B3E00FD0C9F7F6CF462F4F70405D4A332A
:1051400018F0495D31FD4052419302D0A9F7EACFF2
:10515000B4E0A6959795879577956795BA95C9F721
:1051600000976105710508959B01AC010A2E069414
:105170005795479537952795BA95C9F7620F731FCD
:10518000841F951FA01D0895F999FECF92BD81BD82
:10519000F89A992780B50895262FF999FECF1FBA5E
:1051A00092BD81BD20BD0FB6F894FA9AF99A0FBE50
:1051B000019608952F923F924F925F926F927F9245
:1051C0008F929F92AF92BF92CF92DF92EF92FF9217
:1051D0000F931F93CF93DF93CDB7DEB7CA1BDB0BC3
:1051E0000FB6F894DEBF0FBECDBF09942A88398868
:1051F00048885F846E847D848C849B84AA84B9846F
:10520000C884DF80EE80FD800C811B81AA81B9817A
:10521000CE0FD11D0FB6F894DEBF0FBECDBFED018E
:1052200008955058BB27AA270E9429290C946C2B5B
:105230000E94332B38F00E943A2B20F039F49F3F24
:1052400019F426F40C94092B0EF4E095E7FB0C946A
:10525000032BE92F0E94912B58F3BA1762077307AB
:105260008407950720F079F4A6F50C94B32B0EF47F
:10527000E0950B2EBA2FA02D0B01B90190010C0166
:10528000CA01A0011124FF27591B99F0593F50F47E
:10529000503E68F11A16F040A22F232F342F4427D6
:1052A000585FF3CF469537952795A795F0405395CE
:1052B000C9F77EF41F16BA0B620B730B840BBAF09E
:1052C0009150A1F0FF0FBB1F661F771F881FC2F709
:1052D0000EC0BA0F621F731F841F48F4879577951D
:1052E0006795B795F7959E3F08F0B0CF9395880FD7
:1052F00008F09927EE0F9795879508950E94332B14
:1053000060F080E891E009F49EEF0E943A2B28F0CB
:1053100040E851E071F45EEF0CC00C94092B0C9442
:10532000B32BE92FE0780E94912B40F3092E052A38
:10533000B1F3261737074807590738F00E2E07F83C
:10534000E02569F0E025E0640AC0EF6307F8009407
:1053500007FADB01B9019D01DC01CA01AD01EF9340
:105360000E94112A0E946C2B0E94C1295F91552333
:1053700039F02BED3FE049E450FD49EC0C94122943
:105380000895DF93DD27B92FBF7740E85FE3161656
:10539000170648075B0718F4D92F0E94BF2B9F936D
:1053A0008F937F936F930E94822CEAEBF0E00E9430
:1053B0000C2B0E946C2B2F913F914F915F910E947B
:1053C000DA2BDD2351F09058A2EA2AED3FE049ECB8
:1053D0005FE3D0785D270E942929DF910C946C2B24
:1053E0000E94DF2A08F481E008950E94432BE39590
:1053F0000C947D2B0E940E2A0C946C2B0E943A2B4D
:1054000058F00E94332B40F029F45F3F29F00C94B0
:10541000032B51110C94B42B0C94092B0E94912B4B
:1054200068F39923B1F3552391F3951B550BBB27D3
:10543000AA2762177307840738F09F5F5F4F220F18
:10544000331F441FAA1FA9F335D00E2E3AF0E0E80F
:1054500032D091505040E695001CCAF72BD0FE2F59
:1054600029D0660F771F881FBB1F261737074807ED
:10547000AB07B0E809F0BB0B802DBF01FF279358A5
:105480005F4F3AF09E3F510578F00C94032B0C943B
:10549000B42B5F3FE4F3983ED4F3869577956795F8
:1054A000B795F7959F5FC9F7880F911D96958795DA
:1054B00097F90895E1E0660F771F881FBB1F6217F9
:1054C00073078407BA0720F0621B730B840BBA0BB7
:1054D000EE1F88F7E09508950E94732A6894B11131
:1054E0000C94B42B08950E94992B88F09F5798F044
:1054F000B92F9927B751B0F0E1F0660F771F881FD9
:10550000991F1AF0BA95C9F714C0B13091F00E94F2
:10551000B32BB1E008950C94B32B672F782F882715
:10552000B85F39F0B93FCCF3869577956795B39519
:10553000D9F73EF490958095709561957F4F8F4F88
:105540009F4F0895E89409C097FB3EF4909580958D
:10555000709561957F4F8F4F9F4F9923A9F0F92F39
:1055600096E9BB279395F695879577956795B795B7
:10557000F111F8CFFAF4BB0F11F460FF1BC06F5F9D
:105580007F4F8F4F9F4F16C0882311F096E911C0AF
:10559000772321F09EE8872F762F05C0662371F0D0
:1055A00096E8862F70E060E02AF09A95660F771FE4
:1055B000881FDAF7880F9695879597F90895990FC0
:1055C0000008550FAA0BE0E8FEEF16161706E807CD
:1055D000F907C0F012161306E407F50798F0621BEE
:1055E000730B840B950B39F40A2661F0232B242BC3
:1055F000252B21F408950A2609F4A140A6958FEFE2
:10560000811D811D089597F99F6780E870E060E033
:1056100008959FEF80EC0895DF93CF931F930F932E
:10562000FF92EF92DF927B018C01689406C0DA2E24
:10563000EF010E94DA2BFE01E894A59125913591A6
:1056400045915591A6F3EF010E942929FE0197018A
:10565000A801DA9469F7DF90EF90FF900F911F9106
:10566000CF91DF91089500240A94161617061806A4
:105670000906089500240A94121613061406050656
:1056800008950C94092B0E94992BD8F3E894E0E03C
:10569000BB279F57F0F02AED3FE049EC06C0EE0F24
:1056A000BB0F661F771F881F28F0B23A6207730787
:1056B000840728F0B25A620B730B840BE3959A951A
:1056C00072F7803830F49A95BB0F661F771F881FDA
:1056D000D2F790480C94882C092E0394000C11F4F6
:1056E000882352F0BB0F40F4BF2B11F460FF04C0BD
:1056F0006F5F7F4F8F4F9F4F0895EF93E0FF07C07D
:10570000A2EA2AED3FE049EC5FEB0E9429290E94C2
:105710006C2B0F90039401FC9058E7EEF0E00C9492
:105720009B2C57FD9058440F551F59F05F3F71F067
:105730004795880F97FB991F61F09F3F79F08795F8
:105740000895121613061406551FF2CF4695F1DF81
:1057500008C0161617061806991FF1CF8695710511
:10576000610508940895E894BB2766277727CB0145
:1057700097F908950E94DF2A08F48FEF08959B019E
:10578000AC0160E070E080E89FE30C94FA290E948D
:10579000DA2B0C946C2B0E94332B38F00E943A2B9E
:1057A00020F0952311F00C94032B0C94092B112459
:1057B0000C94B42B0E94912B70F3959FC1F3950F1D
:1057C00050E0551F629FF001729FBB27F00DB11D85
:1057D000639FAA27F00DB11DAA1F649F6627B00D15
:1057E000A11D661F829F2227B00DA11D621F739FFE
:1057F000B00DA11D621F839FA00D611D221F749F0C
:105800003327A00D611D231F849F600D211D822F52
:10581000762F6A2F11249F5750409AF0F1F0882379
:105820004AF0EE0FFF1FBB1F661F771F881F9150A6
:105830005040A9F79E3F510580F00C94032B0C9427
:10584000B42B5F3FE4F3983ED4F386957795679544
:10585000B795F795E7959F5FC1F7FE2B880F911DD0
:105860009695879597F908959F930E94432B0F90E3
:1058700007FCEE5F0C947D2B19F416F40C94092BA5
:105880000C94862C0E94992BB8F39923C9F3B6F394
:105890009F57550B87FF0E94942C0024A0E640EAF6
:1058A000900180585695979528F4805C660F771F75
:1058B000881F20F026173707480730F4621B730B48
:1058C000840B202931294A2BA6951794079420256B
:1058D00031254A2758F7660F771F881F20F02617B3
:1058E0003707480730F4620B730B840B200D311D12
:1058F000411DA09581F7B901842F9158880F969585
:10590000879508959B01AC010C94C72B9F3F31F004
:10591000915020F4879577956795B795880F911DDD
:105920009695879597F9089591505040660F771F87
:10593000881FD2F708959F938F937F936F93FF9360
:10594000EF939B01AC010E94C72BEF91FF910E9446
:105950000C2B2F913F914F915F910C94C72BDB0142
:105960008F939F930E94FB2CBF91AF91A29F800DBC
:10597000911DA39F900DB29F900D1124089597FB48
:10598000072E16F4009407D077FD09D00E940E2D43
:1059900007FC05D03EF4909581959F4F0895709532
:1059A00061957F4F0895A1E21A2EAA1BBB1BFD0132
:1059B0000DC0AA1FBB1FEE1FFF1FA217B307E407EE
:1059C000F50720F0A21BB30BE40BF50B661F771F46
:1059D000881F991F1A9469F7609570958095909526
:1059E0009B01AC01BD01CF010895EE0FFF1F059093
:1059F000F491E02D09940E94222DA59F900DB49F53
:105A0000900DA49F800D911D11240895B7FF0C9453
:105A1000FB2C0E94FB2C821B930B0895AA1BBB1B23
:105A200051E107C0AA1FBB1FA617B70710F0A61B9E
:105A3000B70B881F991F5A95A9F780959095BC01BF
:105A4000CD010895A29FB001B39FC001A39F700D27
:105A5000811D1124911DB29F700D811D1124911D76
:105A6000089581E090E0F8940C947F2DDC0101C052
:105A70006D9341505040E0F70895FB01DC018D919A
:105A8000019080190110D9F3990B0895FB01DC01F5
:105A900001900D920020E1F70895FB01DC014150D7
:105AA000504048F001900D920020C9F701C01D92AE
:105AB00041505040E0F70895AEE0B0E0E2E6FDE28C
:105AC0000C94E8280D891E8986E08C831A8309834B
:105AD0008FEF9FE79E838D83AE01475E5F4F6F8997
